{
  "_format": "hh-sol-artifact-1",
  "contractName": "InstagramDapp",
  "sourceName": "contracts/insta.sol",
  "abi": [
    {
      "anonymous": false,
      "inputs": [
        {
          "indexed": true,
          "internalType": "address",
          "name": "user",
          "type": "address"
        },
        {
          "indexed": false,
          "internalType": "string",
          "name": "imageHash",
          "type": "string"
        },
        {
          "indexed": false,
          "internalType": "string",
          "name": "description",
          "type": "string"
        },
        {
          "indexed": false,
          "internalType": "uint256",
          "name": "timestamp",
          "type": "uint256"
        }
      ],
      "name": "PostCreated",
      "type": "event"
    },
    {
      "anonymous": false,
      "inputs": [
        {
          "indexed": true,
          "internalType": "address",
          "name": "user",
          "type": "address"
        },
        {
          "indexed": false,
          "internalType": "string",
          "name": "username",
          "type": "string"
        }
      ],
      "name": "UserRegistered",
      "type": "event"
    },
    {
      "inputs": [
        {
          "internalType": "uint256",
          "name": "",
          "type": "uint256"
        }
      ],
      "name": "allPosts",
      "outputs": [
        {
          "internalType": "string",
          "name": "imageHash",
          "type": "string"
        },
        {
          "internalType": "string",
          "name": "description",
          "type": "string"
        },
        {
          "internalType": "uint256",
          "name": "timestamp",
          "type": "uint256"
        },
        {
          "internalType": "string",
          "name": "username",
          "type": "string"
        },
        {
          "internalType": "address",
          "name": "userAddress",
          "type": "address"
        }
      ],
      "stateMutability": "view",
      "type": "function"
    },
    {
      "inputs": [
        {
          "internalType": "string",
          "name": "_imageHash",
          "type": "string"
        },
        {
          "internalType": "string",
          "name": "_description",
          "type": "string"
        }
      ],
      "name": "createPost",
      "outputs": [],
      "stateMutability": "nonpayable",
      "type": "function"
    },
    {
      "inputs": [],
      "name": "getAllPosts",
      "outputs": [
        {
          "components": [
            {
              "internalType": "string",
              "name": "imageHash",
              "type": "string"
            },
            {
              "internalType": "string",
              "name": "description",
              "type": "string"
            },
            {
              "internalType": "uint256",
              "name": "timestamp",
              "type": "uint256"
            },
            {
              "internalType": "string",
              "name": "username",
              "type": "string"
            },
            {
              "internalType": "address",
              "name": "userAddress",
              "type": "address"
            }
          ],
          "internalType": "struct InstagramDapp.Post[]",
          "name": "",
          "type": "tuple[]"
        }
      ],
      "stateMutability": "view",
      "type": "function"
    },
    {
      "inputs": [
        {
          "internalType": "address",
          "name": "_user",
          "type": "address"
        }
      ],
      "name": "getUserPosts",
      "outputs": [
        {
          "components": [
            {
              "internalType": "string",
              "name": "imageHash",
              "type": "string"
            },
            {
              "internalType": "string",
              "name": "description",
              "type": "string"
            },
            {
              "internalType": "uint256",
              "name": "timestamp",
              "type": "uint256"
            },
            {
              "internalType": "string",
              "name": "username",
              "type": "string"
            },
            {
              "internalType": "address",
              "name": "userAddress",
              "type": "address"
            }
          ],
          "internalType": "struct InstagramDapp.Post[]",
          "name": "",
          "type": "tuple[]"
        }
      ],
      "stateMutability": "view",
      "type": "function"
    },
    {
      "inputs": [
        {
          "internalType": "address",
          "name": "",
          "type": "address"
        }
      ],
      "name": "isUserRegistered",
      "outputs": [
        {
          "internalType": "bool",
          "name": "",
          "type": "bool"
        }
      ],
      "stateMutability": "view",
      "type": "function"
    },
    {
      "inputs": [
        {
          "internalType": "string",
          "name": "_username",
          "type": "string"
        }
      ],
      "name": "registerUser",
      "outputs": [],
      "stateMutability": "nonpayable",
      "type": "function"
    },
    {
      "inputs": [
        {
          "internalType": "address",
          "name": "",
          "type": "address"
        },
        {
          "internalType": "uint256",
          "name": "",
          "type": "uint256"
        }
      ],
      "name": "userPosts",
      "outputs": [
        {
          "internalType": "string",
          "name": "imageHash",
          "type": "string"
        },
        {
          "internalType": "string",
          "name": "description",
          "type": "string"
        },
        {
          "internalType": "uint256",
          "name": "timestamp",
          "type": "uint256"
        },
        {
          "internalType": "string",
          "name": "username",
          "type": "string"
        },
        {
          "internalType": "address",
          "name": "userAddress",
          "type": "address"
        }
      ],
      "stateMutability": "view",
      "type": "function"
    },
    {
      "inputs": [
        {
          "internalType": "address",
          "name": "",
          "type": "address"
        }
      ],
      "name": "usernames",
      "outputs": [
        {
          "internalType": "string",
          "name": "",
          "type": "string"
        }
      ],
      "stateMutability": "view",
      "type": "function"
    }
  ],
  "bytecode": "0x608060405234801561001057600080fd5b50611bc4806100206000396000f3fe608060405234801561001057600080fd5b50600436106100885760003560e01c8063718ce2bc1161005b578063718ce2bc146101135780638064d149146101475780639a2194a91461017b578063ee91877c146101ab57610088565b8063163f75221461008d57806330561100146100bd578063392338f5146100db578063704f1b94146100f7575b600080fd5b6100a760048036038101906100a29190611169565b6101db565b6040516100b491906111b1565b60405180910390f35b6100c56101fb565b6040516100d291906113ca565b60405180910390f35b6100f560048036038101906100f09190611521565b610470565b005b610111600480360381019061010c9190611599565b610819565b005b61012d6004803603810190610128919061160e565b61099a565b60405161013e9594939291906116a3565b60405180910390f35b610161600480360381019061015c919061170b565b610b98565b6040516101729594939291906116a3565b60405180910390f35b61019560048036038101906101909190611169565b610da3565b6040516101a291906113ca565b60405180910390f35b6101c560048036038101906101c09190611169565b611057565b6040516101d2919061174b565b60405180910390f35b60006020528060005260406000206000915054906101000a900460ff1681565b60606003805480602002602001604051908101604052809291908181526020016000905b8282101561046757838290600052602060002090600502016040518060a00160405290816000820180546102529061179c565b80601f016020809104026020016040519081016040528092919081815260200182805461027e9061179c565b80156102cb5780601f106102a0576101008083540402835291602001916102cb565b820191906000526020600020905b8154815290600101906020018083116102ae57829003601f168201915b505050505081526020016001820180546102e49061179c565b80601f01602080910402602001604051908101604052809291908181526020018280546103109061179c565b801561035d5780601f106103325761010080835404028352916020019161035d565b820191906000526020600020905b81548152906001019060200180831161034057829003601f168201915b50505050508152602001600282015481526020016003820180546103809061179c565b80601f01602080910402602001604051908101604052809291908181526020018280546103ac9061179c565b80156103f95780601f106103ce576101008083540402835291602001916103f9565b820191906000526020600020905b8154815290600101906020018083116103dc57829003601f168201915b505050505081526020016004820160009054906101000a900473ffffffffffffffffffffffffffffffffffffffff1673ffffffffffffffffffffffffffffffffffffffff1673ffffffffffffffffffffffffffffffffffffffff16815250508152602001906001019061021f565b50505050905090565b6000803373ffffffffffffffffffffffffffffffffffffffff1673ffffffffffffffffffffffffffffffffffffffff16815260200190815260200160002060009054906101000a900460ff166104fb576040517f08c379a00000000000000000000000000000000000000000000000000000000081526004016104f29061183f565b60405180910390fd5b60006040518060a00160405280848152602001838152602001428152602001600160003373ffffffffffffffffffffffffffffffffffffffff1673ffffffffffffffffffffffffffffffffffffffff16815260200190815260200160002080546105649061179c565b80601f01602080910402602001604051908101604052809291908181526020018280546105909061179c565b80156105dd5780601f106105b2576101008083540402835291602001916105dd565b820191906000526020600020905b8154815290600101906020018083116105c057829003601f168201915b505050505081526020013373ffffffffffffffffffffffffffffffffffffffff168152509050600260003373ffffffffffffffffffffffffffffffffffffffff1673ffffffffffffffffffffffffffffffffffffffff16815260200190815260200160002081908060018154018082558091505060019003906000526020600020906005020160009091909190915060008201518160000190816106819190611a0b565b5060208201518160010190816106979190611a0b565b506040820151816002015560608201518160030190816106b79190611a0b565b5060808201518160040160006101000a81548173ffffffffffffffffffffffffffffffffffffffff021916908373ffffffffffffffffffffffffffffffffffffffff1602179055505050600381908060018154018082558091505060019003906000526020600020906005020160009091909190915060008201518160000190816107429190611a0b565b5060208201518160010190816107589190611a0b565b506040820151816002015560608201518160030190816107789190611a0b565b5060808201518160040160006101000a81548173ffffffffffffffffffffffffffffffffffffffff021916908373ffffffffffffffffffffffffffffffffffffffff16021790555050503373ffffffffffffffffffffffffffffffffffffffff167f4dc899ab633bbd3c97004820698910906a6748451e00b59a3e011358dc2f9fb584844260405161080c93929190611add565b60405180910390a2505050565b6000803373ffffffffffffffffffffffffffffffffffffffff1673ffffffffffffffffffffffffffffffffffffffff16815260200190815260200160002060009054906101000a900460ff16156108a5576040517f08c379a000000000000000000000000000000000000000000000000000000000815260040161089c90611b6e565b60405180910390fd5b80600160003373ffffffffffffffffffffffffffffffffffffffff1673ffffffffffffffffffffffffffffffffffffffff16815260200190815260200160002090816108f19190611a0b565b5060016000803373ffffffffffffffffffffffffffffffffffffffff1673ffffffffffffffffffffffffffffffffffffffff16815260200190815260200160002060006101000a81548160ff0219169083151502179055503373ffffffffffffffffffffffffffffffffffffffff167f48cac28ad4dc618e15f4c2dd5e97751182f166de97b25618318b2112aa951a2f8260405161098f919061174b565b60405180910390a250565b600381815481106109aa57600080fd5b90600052602060002090600502016000915090508060000180546109cd9061179c565b80601f01602080910402602001604051908101604052809291908181526020018280546109f99061179c565b8015610a465780601f10610a1b57610100808354040283529160200191610a46565b820191906000526020600020905b815481529060010190602001808311610a2957829003601f168201915b505050505090806001018054610a5b9061179c565b80601f0160208091040260200160405190810160405280929190818152602001828054610a879061179c565b8015610ad45780601f10610aa957610100808354040283529160200191610ad4565b820191906000526020600020905b815481529060010190602001808311610ab757829003601f168201915b505050505090806002015490806003018054610aef9061179c565b80601f0160208091040260200160405190810160405280929190818152602001828054610b1b9061179c565b8015610b685780601f10610b3d57610100808354040283529160200191610b68565b820191906000526020600020905b815481529060010190602001808311610b4b57829003601f168201915b5050505050908060040160009054906101000a900473ffffffffffffffffffffffffffffffffffffffff16905085565b60026020528160005260406000208181548110610bb457600080fd5b906000526020600020906005020160009150915050806000018054610bd89061179c565b80601f0160208091040260200160405190810160405280929190818152602001828054610c049061179c565b8015610c515780601f10610c2657610100808354040283529160200191610c51565b820191906000526020600020905b815481529060010190602001808311610c3457829003601f168201915b505050505090806001018054610c669061179c565b80601f0160208091040260200160405190810160405280929190818152602001828054610c929061179c565b8015610cdf5780601f10610cb457610100808354040283529160200191610cdf565b820191906000526020600020905b815481529060010190602001808311610cc257829003601f168201915b505050505090806002015490806003018054610cfa9061179c565b80601f0160208091040260200160405190810160405280929190818152602001828054610d269061179c565b8015610d735780601f10610d4857610100808354040283529160200191610d73565b820191906000526020600020905b815481529060010190602001808311610d5657829003601f168201915b5050505050908060040160009054906101000a900473ffffffffffffffffffffffffffffffffffffffff16905085565b6060600260008373ffffffffffffffffffffffffffffffffffffffff1673ffffffffffffffffffffffffffffffffffffffff168152602001908152602001600020805480602002602001604051908101604052809291908181526020016000905b8282101561104c57838290600052602060002090600502016040518060a0016040529081600082018054610e379061179c565b80601f0160208091040260200160405190810160405280929190818152602001828054610e639061179c565b8015610eb05780601f10610e8557610100808354040283529160200191610eb0565b820191906000526020600020905b815481529060010190602001808311610e9357829003601f168201915b50505050508152602001600182018054610ec99061179c565b80601f0160208091040260200160405190810160405280929190818152602001828054610ef59061179c565b8015610f425780601f10610f1757610100808354040283529160200191610f42565b820191906000526020600020905b815481529060010190602001808311610f2557829003601f168201915b5050505050815260200160028201548152602001600382018054610f659061179c565b80601f0160208091040260200160405190810160405280929190818152602001828054610f919061179c565b8015610fde5780601f10610fb357610100808354040283529160200191610fde565b820191906000526020600020905b815481529060010190602001808311610fc157829003601f168201915b505050505081526020016004820160009054906101000a900473ffffffffffffffffffffffffffffffffffffffff1673ffffffffffffffffffffffffffffffffffffffff1673ffffffffffffffffffffffffffffffffffffffff168152505081526020019060010190610e04565b505050509050919050565b600160205280600052604060002060009150905080546110769061179c565b80601f01602080910402602001604051908101604052809291908181526020018280546110a29061179c565b80156110ef5780601f106110c4576101008083540402835291602001916110ef565b820191906000526020600020905b8154815290600101906020018083116110d257829003601f168201915b505050505081565b6000604051905090565b600080fd5b600080fd5b600073ffffffffffffffffffffffffffffffffffffffff82169050919050565b60006111368261110b565b9050919050565b6111468161112b565b811461115157600080fd5b50565b6000813590506111638161113d565b92915050565b60006020828403121561117f5761117e611101565b5b600061118d84828501611154565b91505092915050565b60008115159050919050565b6111ab81611196565b82525050565b60006020820190506111c660008301846111a2565b92915050565b600081519050919050565b600082825260208201905092915050565b6000819050602082019050919050565b600081519050919050565b600082825260208201905092915050565b60005b83811015611232578082015181840152602081019050611217565b60008484015250505050565b6000601f19601f8301169050919050565b600061125a826111f8565b6112648185611203565b9350611274818560208601611214565b61127d8161123e565b840191505092915050565b6000819050919050565b61129b81611288565b82525050565b6112aa8161112b565b82525050565b600060a08301600083015184820360008601526112cd828261124f565b915050602083015184820360208601526112e7828261124f565b91505060408301516112fc6040860182611292565b5060608301518482036060860152611314828261124f565b915050608083015161132960808601826112a1565b508091505092915050565b600061134083836112b0565b905092915050565b6000602082019050919050565b6000611360826111cc565b61136a81856111d7565b93508360208202850161137c856111e8565b8060005b858110156113b857848403895281516113998582611334565b94506113a483611348565b925060208a01995050600181019050611380565b50829750879550505050505092915050565b600060208201905081810360008301526113e48184611355565b905092915050565b600080fd5b600080fd5b7f4e487b7100000000000000000000000000000000000000000000000000000000600052604160045260246000fd5b61142e8261123e565b810181811067ffffffffffffffff8211171561144d5761144c6113f6565b5b80604052505050565b60006114606110f7565b905061146c8282611425565b919050565b600067ffffffffffffffff82111561148c5761148b6113f6565b5b6114958261123e565b9050602081019050919050565b82818337600083830152505050565b60006114c46114bf84611471565b611456565b9050828152602081018484840111156114e0576114df6113f1565b5b6114eb8482856114a2565b509392505050565b600082601f830112611508576115076113ec565b5b81356115188482602086016114b1565b91505092915050565b6000806040838503121561153857611537611101565b5b600083013567ffffffffffffffff81111561155657611555611106565b5b611562858286016114f3565b925050602083013567ffffffffffffffff81111561158357611582611106565b5b61158f858286016114f3565b9150509250929050565b6000602082840312156115af576115ae611101565b5b600082013567ffffffffffffffff8111156115cd576115cc611106565b5b6115d9848285016114f3565b91505092915050565b6115eb81611288565b81146115f657600080fd5b50565b600081359050611608816115e2565b92915050565b60006020828403121561162457611623611101565b5b6000611632848285016115f9565b91505092915050565b600082825260208201905092915050565b6000611657826111f8565b611661818561163b565b9350611671818560208601611214565b61167a8161123e565b840191505092915050565b61168e81611288565b82525050565b61169d8161112b565b82525050565b600060a08201905081810360008301526116bd818861164c565b905081810360208301526116d1818761164c565b90506116e06040830186611685565b81810360608301526116f2818561164c565b90506117016080830184611694565b9695505050505050565b6000806040838503121561172257611721611101565b5b600061173085828601611154565b9250506020611741858286016115f9565b9150509250929050565b60006020820190508181036000830152611765818461164c565b905092915050565b7f4e487b7100000000000000000000000000000000000000000000000000000000600052602260045260246000fd5b600060028204905060018216806117b457607f821691505b6020821081036117c7576117c661176d565b5b50919050565b7f4f6e6c7920726567697374657265642075736572732063616e2063726561746560008201527f20706f7374730000000000000000000000000000000000000000000000000000602082015250565b600061182960268361163b565b9150611834826117cd565b604082019050919050565b600060208201905081810360008301526118588161181c565b9050919050565b60008190508160005260206000209050919050565b60006020601f8301049050919050565b600082821b905092915050565b6000600883026118c17fffffffffffffffffffffffffffffffffffffffffffffffffffffffffffffffff82611884565b6118cb8683611884565b95508019841693508086168417925050509392505050565b6000819050919050565b60006119086119036118fe84611288565b6118e3565b611288565b9050919050565b6000819050919050565b611922836118ed565b61193661192e8261190f565b848454611891565b825550505050565b600090565b61194b61193e565b611956818484611919565b505050565b5b8181101561197a5761196f600082611943565b60018101905061195c565b5050565b601f8211156119bf576119908161185f565b61199984611874565b810160208510156119a8578190505b6119bc6119b485611874565b83018261195b565b50505b505050565b600082821c905092915050565b60006119e2600019846008026119c4565b1980831691505092915050565b60006119fb83836119d1565b9150826002028217905092915050565b611a14826111f8565b67ffffffffffffffff811115611a2d57611a2c6113f6565b5b611a37825461179c565b611a4282828561197e565b600060209050601f831160018114611a755760008415611a63578287015190505b611a6d85826119ef565b865550611ad5565b601f198416611a838661185f565b60005b82811015611aab57848901518255600182019150602085019450602081019050611a86565b86831015611ac85784890151611ac4601f8916826119d1565b8355505b6001600288020188555050505b505050505050565b60006060820190508181036000830152611af7818661164c565b90508181036020830152611b0b818561164c565b9050611b1a6040830184611685565b949350505050565b7f5573657220616c72656164792072656769737465726564000000000000000000600082015250565b6000611b5860178361163b565b9150611b6382611b22565b602082019050919050565b60006020820190508181036000830152611b8781611b4b565b905091905056fea2646970667358221220f23b9e952748be80707dfaebabecc0d657cbc4dbdde3d2fd0bef27424089a43c64736f6c63430008140033",
  "linkReferences": {},
  "deployedLinkReferences": {}
}